{
  "_format": "hh-sol-artifact-1",
  "contractName": "Logging",
  "sourceName": "contracts/Logging.sol",
  "abi": [
    {
      "anonymous": false,
      "inputs": [
        {
          "indexed": true,
          "internalType": "bytes32",
          "name": "logId",
          "type": "bytes32"
        },
        {
          "indexed": false,
          "internalType": "string",
          "name": "logType",
          "type": "string"
        },
        {
          "indexed": false,
          "internalType": "bytes32",
          "name": "dataHash",
          "type": "bytes32"
        },
        {
          "indexed": false,
          "internalType": "uint256",
          "name": "timestamp",
          "type": "uint256"
        }
      ],
      "name": "LogEntry",
      "type": "event"
    },
    {
      "inputs": [
        {
          "internalType": "bytes32",
          "name": "_logId",
          "type": "bytes32"
        },
        {
          "internalType": "string",
          "name": "_logType",
          "type": "string"
        },
        {
          "internalType": "bytes32",
          "name": "_dataHash",
          "type": "bytes32"
        }
      ],
      "name": "addLog",
      "outputs": [],
      "stateMutability": "nonpayable",
      "type": "function"
    },
    {
      "inputs": [
        {
          "internalType": "bytes32",
          "name": "",
          "type": "bytes32"
        }
      ],
      "name": "logs",
      "outputs": [
        {
          "internalType": "bytes32",
          "name": "logId",
          "type": "bytes32"
        },
        {
          "internalType": "string",
          "name": "logType",
          "type": "string"
        },
        {
          "internalType": "bytes32",
          "name": "dataHash",
          "type": "bytes32"
        },
        {
          "internalType": "uint256",
          "name": "timestamp",
          "type": "uint256"
        }
      ],
      "stateMutability": "view",
      "type": "function"
    }
  ],
  "bytecode": "0x6080604052348015600f57600080fd5b506109228061001f6000396000f3fe608060405234801561001057600080fd5b50600436106100365760003560e01c80639a02b6531461003b578063ab2f7ff51461006e575b600080fd5b6100556004803603810190610050919061028f565b61008a565b6040516100659493929190610374565b60405180910390f35b610088600480360381019061008391906104f5565b610142565b005b60006020528060005260406000206000915090508060000154908060010180546100b390610593565b80601f01602080910402602001604051908101604052809291908181526020018280546100df90610593565b801561012c5780601f106101015761010080835404028352916020019161012c565b820191906000526020600020905b81548152906001019060200180831161010f57829003601f168201915b5050505050908060020154908060030154905084565b6000806000858152602001908152602001600020600301541461019a576040517f08c379a000000000000000000000000000000000000000000000000000000000815260040161019190610610565b60405180910390fd5b6040518060800160405280848152602001838152602001828152602001428152506000808581526020019081526020016000206000820151816000015560208201518160010190816101ec91906107dc565b506040820151816002015560608201518160030155905050827fc91c2c4887a2f98f3d6f9c7b875a8aeb9e5e7d184b3bee0afad6fa99d4d7037d838342604051610238939291906108ae565b60405180910390a2505050565b6000604051905090565b600080fd5b600080fd5b6000819050919050565b61026c81610259565b811461027757600080fd5b50565b60008135905061028981610263565b92915050565b6000602082840312156102a5576102a461024f565b5b60006102b38482850161027a565b91505092915050565b6102c581610259565b82525050565b600081519050919050565b600082825260208201905092915050565b60005b838110156103055780820151818401526020810190506102ea565b60008484015250505050565b6000601f19601f8301169050919050565b600061032d826102cb565b61033781856102d6565b93506103478185602086016102e7565b61035081610311565b840191505092915050565b6000819050919050565b61036e8161035b565b82525050565b600060808201905061038960008301876102bc565b818103602083015261039b8186610322565b90506103aa60408301856102bc565b6103b76060830184610365565b95945050505050565b600080fd5b600080fd5b7f4e487b7100000000000000000000000000000000000000000000000000000000600052604160045260246000fd5b61040282610311565b810181811067ffffffffffffffff82111715610421576104206103ca565b5b80604052505050565b6000610434610245565b905061044082826103f9565b919050565b600067ffffffffffffffff8211156104605761045f6103ca565b5b61046982610311565b9050602081019050919050565b82818337600083830152505050565b600061049861049384610445565b61042a565b9050828152602081018484840111156104b4576104b36103c5565b5b6104bf848285610476565b509392505050565b600082601f8301126104dc576104db6103c0565b5b81356104ec848260208601610485565b91505092915050565b60008060006060848603121561050e5761050d61024f565b5b600061051c8682870161027a565b935050602084013567ffffffffffffffff81111561053d5761053c610254565b5b610549868287016104c7565b925050604061055a8682870161027a565b9150509250925092565b7f4e487b7100000000000000000000000000000000000000000000000000000000600052602260045260246000fd5b600060028204905060018216806105ab57607f821691505b6020821081036105be576105bd610564565b5b50919050565b7f4c6f672077697468207468697320494420616c7265616479206578697374732e600082015250565b60006105fa6020836102d6565b9150610605826105c4565b602082019050919050565b60006020820190508181036000830152610629816105ed565b9050919050565b60008190508160005260206000209050919050565b60006020601f8301049050919050565b600082821b905092915050565b6000600883026106927fffffffffffffffffffffffffffffffffffffffffffffffffffffffffffffffff82610655565b61069c8683610655565b95508019841693508086168417925050509392505050565b6000819050919050565b60006106d96106d46106cf8461035b565b6106b4565b61035b565b9050919050565b6000819050919050565b6106f3836106be565b6107076106ff826106e0565b848454610662565b825550505050565b600090565b61071c61070f565b6107278184846106ea565b505050565b5b8181101561074b57610740600082610714565b60018101905061072d565b5050565b601f8211156107905761076181610630565b61076a84610645565b81016020851015610779578190505b61078d61078585610645565b83018261072c565b50505b505050565b600082821c905092915050565b60006107b360001984600802610795565b1980831691505092915050565b60006107cc83836107a2565b9150826002028217905092915050565b6107e5826102cb565b67ffffffffffffffff8111156107fe576107fd6103ca565b5b6108088254610593565b61081382828561074f565b600060209050601f8311600181146108465760008415610834578287015190505b61083e85826107c0565b8655506108a6565b601f19841661085486610630565b60005b8281101561087c57848901518255600182019150602085019450602081019050610857565b868310156108995784890151610895601f8916826107a2565b8355505b6001600288020188555050505b505050505050565b600060608201905081810360008301526108c88186610322565b90506108d760208301856102bc565b6108e46040830184610365565b94935050505056fea26469706673582212208b6918e41992ed3c96abfc06e1100c284cf90e75667e485099bada52baf5624764736f6c634300081c0033",
  "linkReferences": {},
  "deployedLinkReferences": {}
}